:100000000C9434000C9451000C9451000C94CE00CC
:100010000C9451000C9451000C9451000C9451001C
:100020000C9451000C9451000C9451000C9451000C
:100030000C9451000C9451000C9451000C945100FC
:100040000C9496000C9451000C9451000C945100A7
:100050000C9451000C9451000C9451000C945100DC
:100060000C9451000C94510011241FBECFEFD8E026
:10007000DEBFCDBF11E0A0E0B1E0EAE8F2E002C0EF
:1000800005900D92AC30B107D9F721E0ACE0B1E0BA
:1000900001C01D92AD30B207E1F70E9436010C9409
:1000A00043010C9400009FB7F89480910C018130BB
:1000B00009F434C081E080930C019FBF95E095BDA9
:1000C00080936E0090E294B995B980936800809314
:1000D0006B009FB7F8942091000130910101211528
:1000E000310509F01EC020E030E030930A01209372
:1000F0000901309308012093070123E930E0309390
:100100000601209305018093040120E031E0309343
:100110000301209302019FBF7894FFCF9FBF0E94ED
:100120003E010E94380180E283B908950F920FB614
:100130000F921F9211242F933F934F935F936F93CE
:100140007F938F939F93AF93BF93EF93FF93809190
:1001500000019091010181159105F1F48091020156
:10016000823019F081E08093030180E090E0909369
:10017000010180930001FF91EF91BF91AF919F9199
:100180008F917F916F915F914F913F912F911F9030
:100190000F900FBE0F9018950E9438010F920FB666
:1001A0000F921F9211242F933F934F935F936F935E
:1001B0007F938F939F93AF93BF93EF93FF93809120
:1001C0000001909101018115910509F04DC08FEF5B
:1001D0009FEF909301018093000180910201823092
:1001E00009F428C090910301903009F423C01092C3
:1001F00003018170803089F010920201E0910901C1
:10020000F0910A01E115F10519F085E091E00995F9
:10021000E0910501F091060107C081E080930201A1
:10022000E0910701F0910801E115F10519F085E071
:1002300091E00995809100019091010101969093C0
:10024000010180930001FF91EF91BF91AF919F91C8
:100250008F917F916F915F914F913F912F911F905F
:100260000F900FBE0F9018950E9438010E94530006
:100270000E943A010E943C010E9442010E944001FA
:0A0280000E943C01FFCFF894FFCF6D
:0C028A0000000200000000000000000066
:00000001FF
