:100000000C9434000C9451000C9451000C94C300D7
:100010000C9451000C9451000C9451000C9451001C
:100020000C9451000C9451000C9451000C9451000C
:100030000C9451000C9451000C9451000C945100FC
:100040000C948B000C9451000C9451000C945100B2
:100050000C9451000C9451000C9451000C945100DC
:100060000C9451000C94510011241FBECFEFD8E026
:10007000DEBFCDBF11E0A0E0B1E0E6E5F2E002C0F6
:1000800005900D92A830B107D9F721E0A8E0B1E0C2
:1000900001C01D92A930B207E1F70E941C010C9427
:1000A00029010C9400009FB7F894809108018130D9
:1000B00009F429C081E0809308019FBF95E095BDB8
:1000C00080936E0090E294B995B980936800809314
:1000D0006B009FB7F8942091000130910101211528
:1000E0003105A1F48093060128E830E03093050142
:1000F0002093040120E031E03093030120930201BA
:100100009FBF7894FFCF9FBF0E9424010E941E01D1
:1001100080E283B908950F920FB60F921F921124B7
:100120002F933F934F935F936F937F938F939F93FF
:10013000AF93BF93EF93FF938091000190910101E2
:1001400081159105F1F480910201823019F081E06E
:100150008093030180E090E090930101809300017F
:10016000FF91EF91BF91AF919F918F917F916F918F
:100170005F914F913F912F911F900F900FBE0F9065
:1001800018950E941E010F920FB60F921F92112414
:100190002F933F934F935F936F937F938F939F938F
:1001A000AF93BF93EF93FF93809100019091010172
:1001B0008115910509F03EC08FEF9FEF90930101EB
:1001C0008093000180E090E0209102012230E9F06C
:1001D000309103013030C9F01092030121702030BA
:1001E00079F010920201E0910401F091050187E09D
:1001F00091E009958091000190910101019605C05F
:1002000081E08093020180E090E09093010180936F
:100210000001FF91EF91BF91AF919F918F917F91DD
:100220006F915F914F913F912F911F900F900FBE53
:100230000F9018950E941E010E9453000E942001F9
:100240000E9422010E9428010E9426010E94220190
:06025000FFCFF894FFCF80
:0802560000000200000000009E
:00000001FF
