:100000000C9434000C9451000C9451000C94B600E4
:100010000C9451000C9451000C9451000C9451001C
:100020000C9451000C9451000C9451000C9451000C
:100030000C9451000C9451000C9451000C945100FC
:100040000C947E000C9451000C9451000C945100BF
:100050000C9451000C9451000C9451000C945100DC
:100060000C9451000C94510011241FBECFEFD8E026
:10007000DEBFCDBF11E0A0E0B1E0EEE2F2E002C0F1
:1000800005900D92A230B107D9F721E0A2E0B1E0CE
:1000900001C01D92A630B207E1F70E9408010C943E
:1000A00015010C9400009FB7F894809105018130F0
:1000B00009F41FC081E0809305019FBF95E095BDC5
:1000C00080936E0090E294B995B980936800809314
:1000D0006B009FB7F8942091020130910301211524
:1000E000310551F480930401109200019FBF789470
:1000F000FFCF9FBF0E9410010E940A010F920FB60E
:100100000F921F9211242F933F934F935F936F93FE
:100110007F938F939F93AF93BF93EF93FF938091C0
:1001200002019091030181159105F1F48091000184
:10013000823019F081E08093040180E090E0909398
:10014000030180930201FF91EF91BF91AF919F91C5
:100150008F917F916F915F914F913F912F911F9060
:100160000F900FBE0F9018950E940A010F920FB6C4
:100170000F921F9211242F933F934F935F936F938E
:100180007F938F939F93AF93BF93EF93FF93809150
:100190000201909103018115910509F037C08FEF9D
:1001A0009FEF9093030180930201809100018230C0
:1001B000B1F090910401913091F41092040181709A
:1001C000803051F01092000180E283B980910201E9
:1001D00090910301019605C081E08093000180E0C9
:1001E00090E09093030180930201FF91EF91BF9102
:1001F000AF919F918F917F916F915F914F913F91BF
:100200002F911F900F900FBE0F9018950E940A011A
:100210000E9453000E940C010E940E010E941401D2
:0E0220000E9412010E940E01FFCFF894FFCF42
:02022E000200CC
:00000001FF
