:100000000C9434000C9446000C9446000C9466004A
:100010000C9446000C9446000C9446000C94460048
:100020000C9446000C9446000C9446000C94460038
:100030000C9446000C9446000C9446000C94460028
:100040000C9466000C9446000C9446000C944600F8
:100050000C9446000C9446000C9446000C94460008
:100060000C9446000C94460011241FBECFEFD8E03C
:10007000DEBFCDBF21E0A0E0B1E001C01D92A13004
:10008000B207E1F70E946D000C9476000C9400001A
:100090008FB7F89490910001913009F414C091E069
:1000A000909300018FBF85E085BD90936E0080E244
:1000B00084B985B99093680090936B008FB7F894DA
:1000C0008FBF7894FFCF8FBF0E9471000F920FB641
:1000D0000F920F900FBE0F9018950E9448000E943B
:1000E00075000E9473000E946F00FFCFF894FFCF4D
:00000001FF
